{
  "_format": "hh-sol-artifact-1",
  "contractName": "Domains",
  "sourceName": "contracts/Domains.sol",
  "abi": [
    {
      "inputs": [
        {
          "internalType": "string",
          "name": "_tld",
          "type": "string"
        }
      ],
      "stateMutability": "payable",
      "type": "constructor"
    },
    {
      "anonymous": false,
      "inputs": [
        {
          "indexed": true,
          "internalType": "address",
          "name": "owner",
          "type": "address"
        },
        {
          "indexed": true,
          "internalType": "address",
          "name": "approved",
          "type": "address"
        },
        {
          "indexed": true,
          "internalType": "uint256",
          "name": "tokenId",
          "type": "uint256"
        }
      ],
      "name": "Approval",
      "type": "event"
    },
    {
      "anonymous": false,
      "inputs": [
        {
          "indexed": true,
          "internalType": "address",
          "name": "owner",
          "type": "address"
        },
        {
          "indexed": true,
          "internalType": "address",
          "name": "operator",
          "type": "address"
        },
        {
          "indexed": false,
          "internalType": "bool",
          "name": "approved",
          "type": "bool"
        }
      ],
      "name": "ApprovalForAll",
      "type": "event"
    },
    {
      "anonymous": false,
      "inputs": [
        {
          "indexed": true,
          "internalType": "address",
          "name": "from",
          "type": "address"
        },
        {
          "indexed": true,
          "internalType": "address",
          "name": "to",
          "type": "address"
        },
        {
          "indexed": true,
          "internalType": "uint256",
          "name": "tokenId",
          "type": "uint256"
        }
      ],
      "name": "Transfer",
      "type": "event"
    },
    {
      "inputs": [
        {
          "internalType": "address",
          "name": "to",
          "type": "address"
        },
        {
          "internalType": "uint256",
          "name": "tokenId",
          "type": "uint256"
        }
      ],
      "name": "approve",
      "outputs": [],
      "stateMutability": "nonpayable",
      "type": "function"
    },
    {
      "inputs": [
        {
          "internalType": "address",
          "name": "owner",
          "type": "address"
        }
      ],
      "name": "balanceOf",
      "outputs": [
        {
          "internalType": "uint256",
          "name": "",
          "type": "uint256"
        }
      ],
      "stateMutability": "view",
      "type": "function"
    },
    {
      "inputs": [
        {
          "internalType": "string",
          "name": "",
          "type": "string"
        }
      ],
      "name": "domains",
      "outputs": [
        {
          "internalType": "address",
          "name": "",
          "type": "address"
        }
      ],
      "stateMutability": "view",
      "type": "function"
    },
    {
      "inputs": [
        {
          "internalType": "uint256",
          "name": "tokenId",
          "type": "uint256"
        }
      ],
      "name": "getApproved",
      "outputs": [
        {
          "internalType": "address",
          "name": "",
          "type": "address"
        }
      ],
      "stateMutability": "view",
      "type": "function"
    },
    {
      "inputs": [
        {
          "internalType": "address",
          "name": "owner",
          "type": "address"
        },
        {
          "internalType": "address",
          "name": "operator",
          "type": "address"
        }
      ],
      "name": "isApprovedForAll",
      "outputs": [
        {
          "internalType": "bool",
          "name": "",
          "type": "bool"
        }
      ],
      "stateMutability": "view",
      "type": "function"
    },
    {
      "inputs": [],
      "name": "isOwner",
      "outputs": [
        {
          "internalType": "bool",
          "name": "",
          "type": "bool"
        }
      ],
      "stateMutability": "view",
      "type": "function"
    },
    {
      "inputs": [],
      "name": "name",
      "outputs": [
        {
          "internalType": "string",
          "name": "",
          "type": "string"
        }
      ],
      "stateMutability": "view",
      "type": "function"
    },
    {
      "inputs": [],
      "name": "owner",
      "outputs": [
        {
          "internalType": "address payable",
          "name": "",
          "type": "address"
        }
      ],
      "stateMutability": "view",
      "type": "function"
    },
    {
      "inputs": [
        {
          "internalType": "uint256",
          "name": "tokenId",
          "type": "uint256"
        }
      ],
      "name": "ownerOf",
      "outputs": [
        {
          "internalType": "address",
          "name": "",
          "type": "address"
        }
      ],
      "stateMutability": "view",
      "type": "function"
    },
    {
      "inputs": [
        {
          "internalType": "string",
          "name": "name",
          "type": "string"
        }
      ],
      "name": "price",
      "outputs": [
        {
          "internalType": "uint256",
          "name": "",
          "type": "uint256"
        }
      ],
      "stateMutability": "pure",
      "type": "function"
    },
    {
      "inputs": [
        {
          "internalType": "string",
          "name": "",
          "type": "string"
        }
      ],
      "name": "records",
      "outputs": [
        {
          "internalType": "string",
          "name": "",
          "type": "string"
        }
      ],
      "stateMutability": "view",
      "type": "function"
    },
    {
      "inputs": [
        {
          "internalType": "string",
          "name": "name",
          "type": "string"
        }
      ],
      "name": "register",
      "outputs": [],
      "stateMutability": "payable",
      "type": "function"
    },
    {
      "inputs": [
        {
          "internalType": "address",
          "name": "from",
          "type": "address"
        },
        {
          "internalType": "address",
          "name": "to",
          "type": "address"
        },
        {
          "internalType": "uint256",
          "name": "tokenId",
          "type": "uint256"
        }
      ],
      "name": "safeTransferFrom",
      "outputs": [],
      "stateMutability": "nonpayable",
      "type": "function"
    },
    {
      "inputs": [
        {
          "internalType": "address",
          "name": "from",
          "type": "address"
        },
        {
          "internalType": "address",
          "name": "to",
          "type": "address"
        },
        {
          "internalType": "uint256",
          "name": "tokenId",
          "type": "uint256"
        },
        {
          "internalType": "bytes",
          "name": "data",
          "type": "bytes"
        }
      ],
      "name": "safeTransferFrom",
      "outputs": [],
      "stateMutability": "nonpayable",
      "type": "function"
    },
    {
      "inputs": [
        {
          "internalType": "address",
          "name": "operator",
          "type": "address"
        },
        {
          "internalType": "bool",
          "name": "approved",
          "type": "bool"
        }
      ],
      "name": "setApprovalForAll",
      "outputs": [],
      "stateMutability": "nonpayable",
      "type": "function"
    },
    {
      "inputs": [
        {
          "internalType": "bytes4",
          "name": "interfaceId",
          "type": "bytes4"
        }
      ],
      "name": "supportsInterface",
      "outputs": [
        {
          "internalType": "bool",
          "name": "",
          "type": "bool"
        }
      ],
      "stateMutability": "view",
      "type": "function"
    },
    {
      "inputs": [],
      "name": "symbol",
      "outputs": [
        {
          "internalType": "string",
          "name": "",
          "type": "string"
        }
      ],
      "stateMutability": "view",
      "type": "function"
    },
    {
      "inputs": [],
      "name": "tld",
      "outputs": [
        {
          "internalType": "string",
          "name": "",
          "type": "string"
        }
      ],
      "stateMutability": "view",
      "type": "function"
    },
    {
      "inputs": [
        {
          "internalType": "uint256",
          "name": "tokenId",
          "type": "uint256"
        }
      ],
      "name": "tokenURI",
      "outputs": [
        {
          "internalType": "string",
          "name": "",
          "type": "string"
        }
      ],
      "stateMutability": "view",
      "type": "function"
    },
    {
      "inputs": [
        {
          "internalType": "address",
          "name": "from",
          "type": "address"
        },
        {
          "internalType": "address",
          "name": "to",
          "type": "address"
        },
        {
          "internalType": "uint256",
          "name": "tokenId",
          "type": "uint256"
        }
      ],
      "name": "transferFrom",
      "outputs": [],
      "stateMutability": "nonpayable",
      "type": "function"
    },
    {
      "inputs": [],
      "name": "withdraw",
      "outputs": [],
      "stateMutability": "nonpayable",
      "type": "function"
    }
  ],
  "bytecode": "0x6080604052604051806108a0016040528061086b8152602001620045ae61086b91396009908051906020019062000038929190620002c8565b506040518060400160405280600d81526020017f3c2f746578743e3c2f7376673e00000000000000000000000000000000000000815250600a908051906020019062000086929190620002c8565b5060405162004e1938038062004e198339818101604052810190620000ac919062000515565b6040518060400160405280601281526020017f4e696e6a61204e616d65205365727669636500000000000000000000000000008152506040518060400160405280600381526020017f4e4e530000000000000000000000000000000000000000000000000000000000815250816000908051906020019062000130929190620002c8565b50806001908051906020019062000149929190620002c8565b50505033600d60006101000a81548173ffffffffffffffffffffffffffffffffffffffff021916908373ffffffffffffffffffffffffffffffffffffffff1602179055508060089080519060200190620001a5929190620002c8565b50620001f26040518060400160405280601881526020017f2573206e616d652073657276696365206465706c6f796564000000000000000081525082620001f960201b620013f01760201c565b5062000663565b6200029b828260405160240162000212929190620005c3565b6040516020818303038152906040527f4b5c4277000000000000000000000000000000000000000000000000000000007bffffffffffffffffffffffffffffffffffffffffffffffffffffffff19166020820180517bffffffffffffffffffffffffffffffffffffffffffffffffffffffff83818316178352505050506200029f60201b60201c565b5050565b60008151905060006a636f6e736f6c652e6c6f679050602083016000808483855afa5050505050565b828054620002d6906200062d565b90600052602060002090601f016020900481019282620002fa576000855562000346565b82601f106200031557805160ff191683800117855562000346565b8280016001018555821562000346579182015b828111156200034557825182559160200191906001019062000328565b5b50905062000355919062000359565b5090565b5b80821115620003745760008160009055506001016200035a565b5090565b6000604051905090565b600080fd5b600080fd5b600080fd5b600080fd5b6000601f19601f8301169050919050565b7f4e487b7100000000000000000000000000000000000000000000000000000000600052604160045260246000fd5b620003e18262000396565b810181811067ffffffffffffffff82111715620004035762000402620003a7565b5b80604052505050565b60006200041862000378565b9050620004268282620003d6565b919050565b600067ffffffffffffffff821115620004495762000448620003a7565b5b620004548262000396565b9050602081019050919050565b60005b838110156200048157808201518184015260208101905062000464565b8381111562000491576000848401525b50505050565b6000620004ae620004a8846200042b565b6200040c565b905082815260208101848484011115620004cd57620004cc62000391565b5b620004da84828562000461565b509392505050565b600082601f830112620004fa57620004f96200038c565b5b81516200050c84826020860162000497565b91505092915050565b6000602082840312156200052e576200052d62000382565b5b600082015167ffffffffffffffff8111156200054f576200054e62000387565b5b6200055d84828501620004e2565b91505092915050565b600081519050919050565b600082825260208201905092915050565b60006200058f8262000566565b6200059b818562000571565b9350620005ad81856020860162000461565b620005b88162000396565b840191505092915050565b60006040820190508181036000830152620005df818562000582565b90508181036020830152620005f5818462000582565b90509392505050565b7f4e487b7100000000000000000000000000000000000000000000000000000000600052602260045260246000fd5b600060028204905060018216806200064657607f821691505b602082108114156200065d576200065c620005fe565b5b50919050565b613f3b80620006736000396000f3fe60806040526004361061012a5760003560e01c80636352211e116100ab578063a22cb4651161006f578063a22cb46514610406578063b88d4fde1461042f578063c87b56dd14610458578063e985e9c514610495578063f2c298be146104d2578063fe2c6198146104ee5761012a565b80636352211e1461030b57806370a08231146103485780638da5cb5b146103855780638f32d59b146103b057806395d89b41146103db5761012a565b806326449235116100f257806326449235146102265780632d551432146102635780633ccfd60b1461028e57806342842e0e146102a5578063541e771d146102ce5761012a565b806301ffc9a71461012f57806306fdde031461016c578063081812fc14610197578063095ea7b3146101d457806323b872dd146101fd575b600080fd5b34801561013b57600080fd5b5061015660048036038101906101519190612782565b61052b565b60405161016391906127ca565b60405180910390f35b34801561017857600080fd5b5061018161060d565b60405161018e919061287e565b60405180910390f35b3480156101a357600080fd5b506101be60048036038101906101b991906128d6565b61069f565b6040516101cb9190612944565b60405180910390f35b3480156101e057600080fd5b506101fb60048036038101906101f6919061298b565b6106e5565b005b34801561020957600080fd5b50610224600480360381019061021f91906129cb565b6107fd565b005b34801561023257600080fd5b5061024d60048036038101906102489190612b53565b61085d565b60405161025a9190612944565b60405180910390f35b34801561026f57600080fd5b506102786108a6565b604051610285919061287e565b60405180910390f35b34801561029a57600080fd5b506102a3610934565b005b3480156102b157600080fd5b506102cc60048036038101906102c791906129cb565b6109fa565b005b3480156102da57600080fd5b506102f560048036038101906102f09190612b53565b610a1a565b604051610302919061287e565b60405180910390f35b34801561031757600080fd5b50610332600480360381019061032d91906128d6565b610ad0565b60405161033f9190612944565b60405180910390f35b34801561035457600080fd5b5061036f600480360381019061036a9190612b9c565b610b82565b60405161037c9190612bd8565b60405180910390f35b34801561039157600080fd5b5061039a610c3a565b6040516103a79190612c14565b60405180910390f35b3480156103bc57600080fd5b506103c5610c60565b6040516103d291906127ca565b60405180910390f35b3480156103e757600080fd5b506103f0610cb8565b6040516103fd919061287e565b60405180910390f35b34801561041257600080fd5b5061042d60048036038101906104289190612c5b565b610d4a565b005b34801561043b57600080fd5b5061045660048036038101906104519190612d3c565b610d60565b005b34801561046457600080fd5b5061047f600480360381019061047a91906128d6565b610dc2565b60405161048c919061287e565b60405180910390f35b3480156104a157600080fd5b506104bc60048036038101906104b79190612dbf565b610ed5565b6040516104c991906127ca565b60405180910390f35b6104ec60048036038101906104e79190612e5f565b610f69565b005b3480156104fa57600080fd5b5061051560048036038101906105109190612e5f565b61134a565b6040516105229190612bd8565b60405180910390f35b60007f80ac58cd000000000000000000000000000000000000000000000000000000007bffffffffffffffffffffffffffffffffffffffffffffffffffffffff1916827bffffffffffffffffffffffffffffffffffffffffffffffffffffffff191614806105f657507f5b5e139f000000000000000000000000000000000000000000000000000000007bffffffffffffffffffffffffffffffffffffffffffffffffffffffff1916827bffffffffffffffffffffffffffffffffffffffffffffffffffffffff1916145b8061060657506106058261148c565b5b9050919050565b60606000805461061c90612edb565b80601f016020809104026020016040519081016040528092919081815260200182805461064890612edb565b80156106955780601f1061066a57610100808354040283529160200191610695565b820191906000526020600020905b81548152906001019060200180831161067857829003601f168201915b5050505050905090565b60006106aa826114f6565b6004600083815260200190815260200160002060009054906101000a900473ffffffffffffffffffffffffffffffffffffffff169050919050565b60006106f082610ad0565b90508073ffffffffffffffffffffffffffffffffffffffff168373ffffffffffffffffffffffffffffffffffffffff161415610761576040517f08c379a000000000000000000000000000000000000000000000000000000000815260040161075890612f7f565b60405180910390fd5b8073ffffffffffffffffffffffffffffffffffffffff16610780611541565b73ffffffffffffffffffffffffffffffffffffffff1614806107af57506107ae816107a9611541565b610ed5565b5b6107ee576040517f08c379a00000000000000000000000000000000000000000000000000000000081526004016107e590613011565b60405180910390fd5b6107f88383611549565b505050565b61080e610808611541565b82611602565b61084d576040517f08c379a0000000000000000000000000000000000000000000000000000000008152600401610844906130a3565b60405180910390fd5b610858838383611697565b505050565b600b818051602081018201805184825260208301602085012081835280955050505050506000915054906101000a900473ffffffffffffffffffffffffffffffffffffffff1681565b600880546108b390612edb565b80601f01602080910402602001604051908101604052809291908181526020018280546108df90612edb565b801561092c5780601f106109015761010080835404028352916020019161092c565b820191906000526020600020905b81548152906001019060200180831161090f57829003601f168201915b505050505081565b61093c610c60565b61094557600080fd5b600047905060003373ffffffffffffffffffffffffffffffffffffffff1682604051610970906130f4565b60006040518083038185875af1925050503d80600081146109ad576040519150601f19603f3d011682016040523d82523d6000602084013e6109b2565b606091505b50509050806109f6576040517f08c379a00000000000000000000000000000000000000000000000000000000081526004016109ed90613155565b60405180910390fd5b5050565b610a1583838360405180602001604052806000815250610d60565b505050565b600c818051602081018201805184825260208301602085012081835280955050505050506000915090508054610a4f90612edb565b80601f0160208091040260200160405190810160405280929190818152602001828054610a7b90612edb565b8015610ac85780601f10610a9d57610100808354040283529160200191610ac8565b820191906000526020600020905b815481529060010190602001808311610aab57829003601f168201915b505050505081565b6000806002600084815260200190815260200160002060009054906101000a900473ffffffffffffffffffffffffffffffffffffffff169050600073ffffffffffffffffffffffffffffffffffffffff168173ffffffffffffffffffffffffffffffffffffffff161415610b79576040517f08c379a0000000000000000000000000000000000000000000000000000000008152600401610b70906131c1565b60405180910390fd5b80915050919050565b60008073ffffffffffffffffffffffffffffffffffffffff168273ffffffffffffffffffffffffffffffffffffffff161415610bf3576040517f08c379a0000000000000000000000000000000000000000000000000000000008152600401610bea90613253565b60405180910390fd5b600360008373ffffffffffffffffffffffffffffffffffffffff1673ffffffffffffffffffffffffffffffffffffffff168152602001908152602001600020549050919050565b600d60009054906101000a900473ffffffffffffffffffffffffffffffffffffffff1681565b6000600d60009054906101000a900473ffffffffffffffffffffffffffffffffffffffff1673ffffffffffffffffffffffffffffffffffffffff163373ffffffffffffffffffffffffffffffffffffffff1614905090565b606060018054610cc790612edb565b80601f0160208091040260200160405190810160405280929190818152602001828054610cf390612edb565b8015610d405780601f10610d1557610100808354040283529160200191610d40565b820191906000526020600020905b815481529060010190602001808311610d2357829003601f168201915b5050505050905090565b610d5c610d55611541565b83836118fe565b5050565b610d71610d6b611541565b83611602565b610db0576040517f08c379a0000000000000000000000000000000000000000000000000000000008152600401610da7906130a3565b60405180910390fd5b610dbc84848484611a6b565b50505050565b6060610dcd826114f6565b6000600660008481526020019081526020016000208054610ded90612edb565b80601f0160208091040260200160405190810160405280929190818152602001828054610e1990612edb565b8015610e665780601f10610e3b57610100808354040283529160200191610e66565b820191906000526020600020905b815481529060010190602001808311610e4957829003601f168201915b505050505090506000610e77611ac7565b9050600081511415610e8d578192505050610ed0565b600082511115610ec2578082604051602001610eaa9291906132af565b60405160208183030381529060405292505050610ed0565b610ecb84611ade565b925050505b919050565b6000600560008473ffffffffffffffffffffffffffffffffffffffff1673ffffffffffffffffffffffffffffffffffffffff16815260200190815260200160002060008373ffffffffffffffffffffffffffffffffffffffff1673ffffffffffffffffffffffffffffffffffffffff16815260200190815260200160002060009054906101000a900460ff16905092915050565b600073ffffffffffffffffffffffffffffffffffffffff16600b8383604051610f939291906132f8565b908152602001604051809103902060009054906101000a900473ffffffffffffffffffffffffffffffffffffffff1673ffffffffffffffffffffffffffffffffffffffff1614610fe257600080fd5b6000610fee838361134a565b905080341015611033576040517f08c379a000000000000000000000000000000000000000000000000000000000815260040161102a9061335d565b60405180910390fd5b60008383600860405160200161104b9392919061345d565b60405160208183030381529060405290506000600982600a6040516020016110759392919061348e565b604051602081830303815290604052905060006110926007611b46565b905060006110e387878080601f016020809104026020016040519081016040528093929190818152602001838380828437600081840152601f19601f82011690508083019250505050505050611b54565b905060006110f082611d09565b90506111e4604051806060016040528060318152602001613e5c6031913989898080601f016020809104026020016040519081016040528093929190818152602001838380828437600081840152601f19601f820116905080830192505050505050506008805461116090612edb565b80601f016020809104026020016040519081016040528092919081815260200182805461118c90612edb565b80156111d95780601f106111ae576101008083540402835291602001916111d9565b820191906000526020600020905b8154815290600101906020018083116111bc57829003601f168201915b505050505086611e6a565b600061121a866111f387611f0c565b846040516020016112069392919061363b565b604051602081830303815290604052611f0c565b905060008160405160200161122f91906136e4565b6040516020818303038152906040529050611261604051806060016040528060398152602001613e23603991396120a4565b6112a06040518060400160405280600e81526020017f46696e616c20746f6b656e555249000000000000000000000000000000000000815250826113f0565b6112c1604051806060016040528060398152602001613e8d603991396120a4565b6112cb338661213d565b6112d5858261215b565b33600b8b8b6040516112e89291906132f8565b908152602001604051809103902060006101000a81548173ffffffffffffffffffffffffffffffffffffffff021916908373ffffffffffffffffffffffffffffffffffffffff16021790555061133e60076121cf565b50505050505050505050565b60008061139a84848080601f016020809104026020016040519081016040528093929190818152602001838380828437600081840152601f19601f82011690508083019250505050505050611b54565b9050600081116113a957600080fd5b60038114156113c3576706f05b59d3b200009150506113ea565b60048114156113dd57670429d069189e00009150506113ea565b67016345785d8a00009150505b92915050565b6114888282604051602401611406929190613706565b6040516020818303038152906040527f4b5c4277000000000000000000000000000000000000000000000000000000007bffffffffffffffffffffffffffffffffffffffffffffffffffffffff19166020820180517bffffffffffffffffffffffffffffffffffffffffffffffffffffffff83818316178352505050506121e5565b5050565b60007f01ffc9a7000000000000000000000000000000000000000000000000000000007bffffffffffffffffffffffffffffffffffffffffffffffffffffffff1916827bffffffffffffffffffffffffffffffffffffffffffffffffffffffff1916149050919050565b6114ff8161220e565b61153e576040517f08c379a0000000000000000000000000000000000000000000000000000000008152600401611535906131c1565b60405180910390fd5b50565b600033905090565b816004600083815260200190815260200160002060006101000a81548173ffffffffffffffffffffffffffffffffffffffff021916908373ffffffffffffffffffffffffffffffffffffffff160217905550808273ffffffffffffffffffffffffffffffffffffffff166115bc83610ad0565b73ffffffffffffffffffffffffffffffffffffffff167f8c5be1e5ebec7d5bd14f71427d1e84f3dd0314c0f7b2291e5b200ac8c7c3b92560405160405180910390a45050565b60008061160e83610ad0565b90508073ffffffffffffffffffffffffffffffffffffffff168473ffffffffffffffffffffffffffffffffffffffff161480611650575061164f8185610ed5565b5b8061168e57508373ffffffffffffffffffffffffffffffffffffffff166116768461069f565b73ffffffffffffffffffffffffffffffffffffffff16145b91505092915050565b8273ffffffffffffffffffffffffffffffffffffffff166116b782610ad0565b73ffffffffffffffffffffffffffffffffffffffff161461170d576040517f08c379a0000000000000000000000000000000000000000000000000000000008152600401611704906137af565b60405180910390fd5b600073ffffffffffffffffffffffffffffffffffffffff168273ffffffffffffffffffffffffffffffffffffffff16141561177d576040517f08c379a000000000000000000000000000000000000000000000000000000000815260040161177490613841565b60405180910390fd5b61178883838361227a565b611793600082611549565b6001600360008573ffffffffffffffffffffffffffffffffffffffff1673ffffffffffffffffffffffffffffffffffffffff16815260200190815260200160002060008282546117e39190613890565b925050819055506001600360008473ffffffffffffffffffffffffffffffffffffffff1673ffffffffffffffffffffffffffffffffffffffff168152602001908152602001600020600082825461183a91906138c4565b92505081905550816002600083815260200190815260200160002060006101000a81548173ffffffffffffffffffffffffffffffffffffffff021916908373ffffffffffffffffffffffffffffffffffffffff160217905550808273ffffffffffffffffffffffffffffffffffffffff168473ffffffffffffffffffffffffffffffffffffffff167fddf252ad1be2c89b69c2b068fc378daa952ba7f163c4a11628f55a4df523b3ef60405160405180910390a46118f983838361227f565b505050565b8173ffffffffffffffffffffffffffffffffffffffff168373ffffffffffffffffffffffffffffffffffffffff16141561196d576040517f08c379a000000000000000000000000000000000000000000000000000000000815260040161196490613966565b60405180910390fd5b80600560008573ffffffffffffffffffffffffffffffffffffffff1673ffffffffffffffffffffffffffffffffffffffff16815260200190815260200160002060008473ffffffffffffffffffffffffffffffffffffffff1673ffffffffffffffffffffffffffffffffffffffff16815260200190815260200160002060006101000a81548160ff0219169083151502179055508173ffffffffffffffffffffffffffffffffffffffff168373ffffffffffffffffffffffffffffffffffffffff167f17307eab39ab6107e8899845ad3d59bd9653f200f220920489ca2b5937696c3183604051611a5e91906127ca565b60405180910390a3505050565b611a76848484611697565b611a8284848484612284565b611ac1576040517f08c379a0000000000000000000000000000000000000000000000000000000008152600401611ab8906139f8565b60405180910390fd5b50505050565b606060405180602001604052806000815250905090565b6060611ae9826114f6565b6000611af3611ac7565b90506000815111611b135760405180602001604052806000815250611b3e565b80611b1d84611d09565b604051602001611b2e9291906132af565b6040516020818303038152906040525b915050919050565b600081600001549050919050565b60008060008084519050600092505b80821015611cfe576000858381518110611b8057611b7f613a18565b5b602001015160f81c60f81b9050608060f81b817effffffffffffffffffffffffffffffffffffffffffffffffffffffffffffff19161015611bcf57600183611bc891906138c4565b9250611cea565b60e060f81b817effffffffffffffffffffffffffffffffffffffffffffffffffffffffffffff19161015611c1157600283611c0a91906138c4565b9250611ce9565b60f060f81b817effffffffffffffffffffffffffffffffffffffffffffffffffffffffffffff19161015611c5357600383611c4c91906138c4565b9250611ce8565b60f8801b817effffffffffffffffffffffffffffffffffffffffffffffffffffffffffffff19161015611c9457600483611c8d91906138c4565b9250611ce7565b60fc60f81b817effffffffffffffffffffffffffffffffffffffffffffffffffffffffffffff19161015611cd657600583611ccf91906138c4565b9250611ce6565b600683611ce391906138c4565b92505b5b5b5b5b508280611cf690613a47565b935050611b63565b829350505050919050565b60606000821415611d51576040518060400160405280600181526020017f30000000000000000000000000000000000000000000000000000000000000008152509050611e65565b600082905060005b60008214611d83578080611d6c90613a47565b915050600a82611d7c9190613abf565b9150611d59565b60008167ffffffffffffffff811115611d9f57611d9e612a28565b5b6040519080825280601f01601f191660200182016040528015611dd15781602001600182028036833780820191505090505b5090505b60008514611e5e57600182611dea9190613890565b9150600a85611df99190613af0565b6030611e0591906138c4565b60f81b818381518110611e1b57611e1a613a18565b5b60200101907effffffffffffffffffffffffffffffffffffffffffffffffffffffffffffff1916908160001a905350600a85611e579190613abf565b9450611dd5565b8093505050505b919050565b611f0684848484604051602401611e849493929190613b21565b6040516020818303038152906040527f8eafb02b000000000000000000000000000000000000000000000000000000007bffffffffffffffffffffffffffffffffffffffffffffffffffffffff19166020820180517bffffffffffffffffffffffffffffffffffffffffffffffffffffffff83818316178352505050506121e5565b50505050565b60606000825190506000811415611f35576040518060200160405280600081525091505061209f565b60006003600283611f4691906138c4565b611f509190613abf565b6004611f5c9190613b7b565b90506000602082611f6d91906138c4565b67ffffffffffffffff811115611f8657611f85612a28565b5b6040519080825280601f01601f191660200182016040528015611fb85781602001600182028036833780820191505090505b5090506000604051806060016040528060408152602001613ec6604091399050600181016020830160005b8681101561205c5760038101905062ffffff818a015116603f8160121c168401518060081b905060ff603f83600c1c1686015116810190508060081b905060ff603f8360061c1686015116810190508060081b905060ff603f831686015116810190508060e01b90508084526004840193505050611fe3565b506003860660018114612076576002811461208657612091565b613d3d60f01b6002830352612091565b603d60f81b60018303525b508484525050819450505050505b919050565b61213a816040516024016120b8919061287e565b6040516020818303038152906040527f41304fac000000000000000000000000000000000000000000000000000000007bffffffffffffffffffffffffffffffffffffffffffffffffffffffff19166020820180517bffffffffffffffffffffffffffffffffffffffffffffffffffffffff83818316178352505050506121e5565b50565b61215782826040518060200160405280600081525061241b565b5050565b6121648261220e565b6121a3576040517f08c379a000000000000000000000000000000000000000000000000000000000815260040161219a90613c47565b60405180910390fd5b806006600084815260200190815260200160002090805190602001906121ca929190612673565b505050565b6001816000016000828254019250508190555050565b60008151905060006a636f6e736f6c652e6c6f679050602083016000808483855afa5050505050565b60008073ffffffffffffffffffffffffffffffffffffffff166002600084815260200190815260200160002060009054906101000a900473ffffffffffffffffffffffffffffffffffffffff1673ffffffffffffffffffffffffffffffffffffffff1614159050919050565b505050565b505050565b60006122a58473ffffffffffffffffffffffffffffffffffffffff16612476565b1561240e578373ffffffffffffffffffffffffffffffffffffffff1663150b7a026122ce611541565b8786866040518563ffffffff1660e01b81526004016122f09493929190613cbc565b602060405180830381600087803b15801561230a57600080fd5b505af192505050801561233b57506040513d601f19601f820116820180604052508101906123389190613d1d565b60015b6123be573d806000811461236b576040519150601f19603f3d011682016040523d82523d6000602084013e612370565b606091505b506000815114156123b6576040517f08c379a00000000000000000000000000000000000000000000000000000000081526004016123ad906139f8565b60405180910390fd5b805181602001fd5b63150b7a0260e01b7bffffffffffffffffffffffffffffffffffffffffffffffffffffffff1916817bffffffffffffffffffffffffffffffffffffffffffffffffffffffff191614915050612413565b600190505b949350505050565b6124258383612499565b6124326000848484612284565b612471576040517f08c379a0000000000000000000000000000000000000000000000000000000008152600401612468906139f8565b60405180910390fd5b505050565b6000808273ffffffffffffffffffffffffffffffffffffffff163b119050919050565b600073ffffffffffffffffffffffffffffffffffffffff168273ffffffffffffffffffffffffffffffffffffffff161415612509576040517f08c379a000000000000000000000000000000000000000000000000000000000815260040161250090613d96565b60405180910390fd5b6125128161220e565b15612552576040517f08c379a000000000000000000000000000000000000000000000000000000000815260040161254990613e02565b60405180910390fd5b61255e6000838361227a565b6001600360008473ffffffffffffffffffffffffffffffffffffffff1673ffffffffffffffffffffffffffffffffffffffff16815260200190815260200160002060008282546125ae91906138c4565b92505081905550816002600083815260200190815260200160002060006101000a81548173ffffffffffffffffffffffffffffffffffffffff021916908373ffffffffffffffffffffffffffffffffffffffff160217905550808273ffffffffffffffffffffffffffffffffffffffff16600073ffffffffffffffffffffffffffffffffffffffff167fddf252ad1be2c89b69c2b068fc378daa952ba7f163c4a11628f55a4df523b3ef60405160405180910390a461266f6000838361227f565b5050565b82805461267f90612edb565b90600052602060002090601f0160209004810192826126a157600085556126e8565b82601f106126ba57805160ff19168380011785556126e8565b828001600101855582156126e8579182015b828111156126e75782518255916020019190600101906126cc565b5b5090506126f591906126f9565b5090565b5b808211156127125760008160009055506001016126fa565b5090565b6000604051905090565b600080fd5b600080fd5b60007fffffffff0000000000000000000000000000000000000000000000000000000082169050919050565b61275f8161272a565b811461276a57600080fd5b50565b60008135905061277c81612756565b92915050565b60006020828403121561279857612797612720565b5b60006127a68482850161276d565b91505092915050565b60008115159050919050565b6127c4816127af565b82525050565b60006020820190506127df60008301846127bb565b92915050565b600081519050919050565b600082825260208201905092915050565b60005b8381101561281f578082015181840152602081019050612804565b8381111561282e576000848401525b50505050565b6000601f19601f8301169050919050565b6000612850826127e5565b61285a81856127f0565b935061286a818560208601612801565b61287381612834565b840191505092915050565b600060208201905081810360008301526128988184612845565b905092915050565b6000819050919050565b6128b3816128a0565b81146128be57600080fd5b50565b6000813590506128d0816128aa565b92915050565b6000602082840312156128ec576128eb612720565b5b60006128fa848285016128c1565b91505092915050565b600073ffffffffffffffffffffffffffffffffffffffff82169050919050565b600061292e82612903565b9050919050565b61293e81612923565b82525050565b60006020820190506129596000830184612935565b92915050565b61296881612923565b811461297357600080fd5b50565b6000813590506129858161295f565b92915050565b600080604083850312156129a2576129a1612720565b5b60006129b085828601612976565b92505060206129c1858286016128c1565b9150509250929050565b6000806000606084860312156129e4576129e3612720565b5b60006129f286828701612976565b9350506020612a0386828701612976565b9250506040612a14868287016128c1565b9150509250925092565b600080fd5b600080fd5b7f4e487b7100000000000000000000000000000000000000000000000000000000600052604160045260246000fd5b612a6082612834565b810181811067ffffffffffffffff82111715612a7f57612a7e612a28565b5b80604052505050565b6000612a92612716565b9050612a9e8282612a57565b919050565b600067ffffffffffffffff821115612abe57612abd612a28565b5b612ac782612834565b9050602081019050919050565b82818337600083830152505050565b6000612af6612af184612aa3565b612a88565b905082815260208101848484011115612b1257612b11612a23565b5b612b1d848285612ad4565b509392505050565b600082601f830112612b3a57612b39612a1e565b5b8135612b4a848260208601612ae3565b91505092915050565b600060208284031215612b6957612b68612720565b5b600082013567ffffffffffffffff811115612b8757612b86612725565b5b612b9384828501612b25565b91505092915050565b600060208284031215612bb257612bb1612720565b5b6000612bc084828501612976565b91505092915050565b612bd2816128a0565b82525050565b6000602082019050612bed6000830184612bc9565b92915050565b6000612bfe82612903565b9050919050565b612c0e81612bf3565b82525050565b6000602082019050612c296000830184612c05565b92915050565b612c38816127af565b8114612c4357600080fd5b50565b600081359050612c5581612c2f565b92915050565b60008060408385031215612c7257612c71612720565b5b6000612c8085828601612976565b9250506020612c9185828601612c46565b9150509250929050565b600067ffffffffffffffff821115612cb657612cb5612a28565b5b612cbf82612834565b9050602081019050919050565b6000612cdf612cda84612c9b565b612a88565b905082815260208101848484011115612cfb57612cfa612a23565b5b612d06848285612ad4565b509392505050565b600082601f830112612d2357612d22612a1e565b5b8135612d33848260208601612ccc565b91505092915050565b60008060008060808587031215612d5657612d55612720565b5b6000612d6487828801612976565b9450506020612d7587828801612976565b9350506040612d86878288016128c1565b925050606085013567ffffffffffffffff811115612da757612da6612725565b5b612db387828801612d0e565b91505092959194509250565b60008060408385031215612dd657612dd5612720565b5b6000612de485828601612976565b9250506020612df585828601612976565b9150509250929050565b600080fd5b600080fd5b60008083601f840112612e1f57612e1e612a1e565b5b8235905067ffffffffffffffff811115612e3c57612e3b612dff565b5b602083019150836001820283011115612e5857612e57612e04565b5b9250929050565b60008060208385031215612e7657612e75612720565b5b600083013567ffffffffffffffff811115612e9457612e93612725565b5b612ea085828601612e09565b92509250509250929050565b7f4e487b7100000000000000000000000000000000000000000000000000000000600052602260045260246000fd5b60006002820490506001821680612ef357607f821691505b60208210811415612f0757612f06612eac565b5b50919050565b7f4552433732313a20617070726f76616c20746f2063757272656e74206f776e6560008201527f7200000000000000000000000000000000000000000000000000000000000000602082015250565b6000612f696021836127f0565b9150612f7482612f0d565b604082019050919050565b60006020820190508181036000830152612f9881612f5c565b9050919050565b7f4552433732313a20617070726f76652063616c6c6572206973206e6f7420746f60008201527f6b656e206f776e6572206e6f7220617070726f76656420666f7220616c6c0000602082015250565b6000612ffb603e836127f0565b915061300682612f9f565b604082019050919050565b6000602082019050818103600083015261302a81612fee565b9050919050565b7f4552433732313a2063616c6c6572206973206e6f7420746f6b656e206f776e6560008201527f72206e6f7220617070726f766564000000000000000000000000000000000000602082015250565b600061308d602e836127f0565b915061309882613031565b604082019050919050565b600060208201905081810360008301526130bc81613080565b9050919050565b600081905092915050565b50565b60006130de6000836130c3565b91506130e9826130ce565b600082019050919050565b60006130ff826130d1565b9150819050919050565b7f4661696c656420746f207769746864726177204d617469630000000000000000600082015250565b600061313f6018836127f0565b915061314a82613109565b602082019050919050565b6000602082019050818103600083015261316e81613132565b9050919050565b7f4552433732313a20696e76616c696420746f6b656e2049440000000000000000600082015250565b60006131ab6018836127f0565b91506131b682613175565b602082019050919050565b600060208201905081810360008301526131da8161319e565b9050919050565b7f4552433732313a2061646472657373207a65726f206973206e6f74206120766160008201527f6c6964206f776e65720000000000000000000000000000000000000000000000602082015250565b600061323d6029836127f0565b9150613248826131e1565b604082019050919050565b6000602082019050818103600083015261326c81613230565b9050919050565b600081905092915050565b6000613289826127e5565b6132938185613273565b93506132a3818560208601612801565b80840191505092915050565b60006132bb828561327e565b91506132c7828461327e565b91508190509392505050565b60006132df8385613273565b93506132ec838584612ad4565b82840190509392505050565b60006133058284866132d3565b91508190509392505050565b7f4e6f7420656e6f756768204d6174696320706169640000000000000000000000600082015250565b60006133476015836127f0565b915061335282613311565b602082019050919050565b600060208201905081810360008301526133768161333a565b9050919050565b7f2e00000000000000000000000000000000000000000000000000000000000000600082015250565b60006133b3600183613273565b91506133be8261337d565b600182019050919050565b60008190508160005260206000209050919050565b600081546133eb81612edb565b6133f58186613273565b94506001821660008114613410576001811461342157613454565b60ff19831686528186019350613454565b61342a856133c9565b60005b8381101561344c5781548189015260018201915060208101905061342d565b838801955050505b50505092915050565b600061346a8285876132d3565b9150613475826133a6565b915061348182846133de565b9150819050949350505050565b600061349a82866133de565b91506134a6828561327e565b91506134b282846133de565b9150819050949350505050565b7f7b226e616d65223a202200000000000000000000000000000000000000000000600082015250565b60006134f5600a83613273565b9150613500826134bf565b600a82019050919050565b7f222c20226465736372697074696f6e223a20224120646f6d61696e206f6e207460008201527f6865204e696e6a61206e616d652073657276696365222c2022696d616765223a60208201527f2022646174613a696d6167652f7376672b786d6c3b6261736536342c00000000604082015250565b600061358d605c83613273565b91506135988261350b565b605c82019050919050565b7f222c226c656e677468223a220000000000000000000000000000000000000000600082015250565b60006135d9600c83613273565b91506135e4826135a3565b600c82019050919050565b7f227d000000000000000000000000000000000000000000000000000000000000600082015250565b6000613625600283613273565b9150613630826135ef565b600282019050919050565b6000613646826134e8565b9150613652828661327e565b915061365d82613580565b9150613669828561327e565b9150613674826135cc565b9150613680828461327e565b915061368b82613618565b9150819050949350505050565b7f646174613a6170706c69636174696f6e2f6a736f6e3b6261736536342c000000600082015250565b60006136ce601d83613273565b91506136d982613698565b601d82019050919050565b60006136ef826136c1565b91506136fb828461327e565b915081905092915050565b600060408201905081810360008301526137208185612845565b905081810360208301526137348184612845565b90509392505050565b7f4552433732313a207472616e736665722066726f6d20696e636f72726563742060008201527f6f776e6572000000000000000000000000000000000000000000000000000000602082015250565b60006137996025836127f0565b91506137a48261373d565b604082019050919050565b600060208201905081810360008301526137c88161378c565b9050919050565b7f4552433732313a207472616e7366657220746f20746865207a65726f2061646460008201527f7265737300000000000000000000000000000000000000000000000000000000602082015250565b600061382b6024836127f0565b9150613836826137cf565b604082019050919050565b6000602082019050818103600083015261385a8161381e565b9050919050565b7f4e487b7100000000000000000000000000000000000000000000000000000000600052601160045260246000fd5b600061389b826128a0565b91506138a6836128a0565b9250828210156138b9576138b8613861565b5b828203905092915050565b60006138cf826128a0565b91506138da836128a0565b9250827fffffffffffffffffffffffffffffffffffffffffffffffffffffffffffffffff0382111561390f5761390e613861565b5b828201905092915050565b7f4552433732313a20617070726f766520746f2063616c6c657200000000000000600082015250565b60006139506019836127f0565b915061395b8261391a565b602082019050919050565b6000602082019050818103600083015261397f81613943565b9050919050565b7f4552433732313a207472616e7366657220746f206e6f6e20455243373231526560008201527f63656976657220696d706c656d656e7465720000000000000000000000000000602082015250565b60006139e26032836127f0565b91506139ed82613986565b604082019050919050565b60006020820190508181036000830152613a11816139d5565b9050919050565b7f4e487b7100000000000000000000000000000000000000000000000000000000600052603260045260246000fd5b6000613a52826128a0565b91507fffffffffffffffffffffffffffffffffffffffffffffffffffffffffffffffff821415613a8557613a84613861565b5b600182019050919050565b7f4e487b7100000000000000000000000000000000000000000000000000000000600052601260045260246000fd5b6000613aca826128a0565b9150613ad5836128a0565b925082613ae557613ae4613a90565b5b828204905092915050565b6000613afb826128a0565b9150613b06836128a0565b925082613b1657613b15613a90565b5b828206905092915050565b60006080820190508181036000830152613b3b8187612845565b90508181036020830152613b4f8186612845565b90508181036040830152613b638185612845565b9050613b726060830184612bc9565b95945050505050565b6000613b86826128a0565b9150613b91836128a0565b9250817fffffffffffffffffffffffffffffffffffffffffffffffffffffffffffffffff0483118215151615613bca57613bc9613861565b5b828202905092915050565b7f45524337323155524953746f726167653a2055524920736574206f66206e6f6e60008201527f6578697374656e7420746f6b656e000000000000000000000000000000000000602082015250565b6000613c31602e836127f0565b9150613c3c82613bd5565b604082019050919050565b60006020820190508181036000830152613c6081613c24565b9050919050565b600081519050919050565b600082825260208201905092915050565b6000613c8e82613c67565b613c988185613c72565b9350613ca8818560208601612801565b613cb181612834565b840191505092915050565b6000608082019050613cd16000830187612935565b613cde6020830186612935565b613ceb6040830185612bc9565b8181036060830152613cfd8184613c83565b905095945050505050565b600081519050613d1781612756565b92915050565b600060208284031215613d3357613d32612720565b5b6000613d4184828501613d08565b91505092915050565b7f4552433732313a206d696e7420746f20746865207a65726f2061646472657373600082015250565b6000613d806020836127f0565b9150613d8b82613d4a565b602082019050919050565b60006020820190508181036000830152613daf81613d73565b9050919050565b7f4552433732313a20746f6b656e20616c7265616479206d696e74656400000000600082015250565b6000613dec601c836127f0565b9150613df782613db6565b602082019050919050565b60006020820190508181036000830152613e1b81613ddf565b905091905056fe0a2d2d2d2d2d2d2d2d2d2d2d2d2d2d2d2d2d2d2d2d2d2d2d2d2d2d2d2d2d2d2d2d2d2d2d2d2d2d2d2d2d2d2d2d2d2d2d2d2d2d2d2d2d2d2d2d5265676973746572696e672025732e2573206f6e2074686520636f6e7472616374207769746820746f6b656e49442025642d2d2d2d2d2d2d2d2d2d2d2d2d2d2d2d2d2d2d2d2d2d2d2d2d2d2d2d2d2d2d2d2d2d2d2d2d2d2d2d2d2d2d2d2d2d2d2d2d2d2d2d2d2d2d2d0a4142434445464748494a4b4c4d4e4f505152535455565758595a6162636465666768696a6b6c6d6e6f707172737475767778797a303132333435363738392b2fa264697066735822122004e407270b497f318810e167e4da44509071891cea3be2de278fbb40f9a560e264736f6c634300080900333c73766720786d6c6e733d22687474703a2f2f7777772e77332e6f72672f323030302f737667222077696474683d2232373022206865696768743d22323730222066696c6c3d226e6f6e65223e3c706174682066696c6c3d2275726c282342292220643d224d302030683237307632373048307a222f3e3c646566733e3c66696c7465722069643d22412220636f6c6f722d696e746572706f6c6174696f6e2d66696c746572733d2273524742222066696c746572556e6974733d227573657253706163654f6e55736522206865696768743d22323730222077696474683d22323730223e3c666544726f70536861646f772064783d2230222064793d22312220737464446576696174696f6e3d22322220666c6f6f642d6f7061636974793d222e323235222077696474683d223230302522206865696768743d2232303025222f3e3c2f66696c7465723e3c2f646566733e3c7061746820643d224d37322e3836332034322e393439632d2e3636382d2e3338372d312e3432362d2e35392d322e3139372d2e3539732d312e3532392e3230342d322e3139372e35396c2d31302e30383120362e3033322d362e383520332e3933342d31302e30383120362e303332632d2e3636382e3338372d312e3432362e35392d322e3139372e3539732d312e3532392d2e3230342d322e3139372d2e35396c2d382e3031332d342e37323161342e353220342e35322030203020312d312e3538392d312e363136632d2e3338342d2e3636352d2e3539342d312e3431382d2e3630382d322e313837762d392e3331632d2e3031332d2e3737352e3138352d312e3533382e3537322d322e32303861342e323520342e323520302030203120312e3632352d312e3539356c372e3838342d342e3539632e3636382d2e33383720312e3432362d2e353920322e3139372d2e353973312e3532392e32303420322e3139372e35396c372e38383420342e353961342e353220342e353220302030203120312e35383920312e363136632e3338342e3636352e35393420312e3431382e36303820322e31383776362e3033326c362e38352d342e303635762d362e303332632e3031332d2e3737352d2e3138352d312e3533382d2e3537322d322e32303861342e323520342e32352030203020302d312e3632352d312e3539354c34312e3435362032342e3539632d2e3636382d2e3338372d312e3432362d2e35392d322e3139372d2e3539732d312e3532392e3230342d322e3139372e35396c2d31342e38363420382e36353561342e323520342e32352030203020302d312e36323520312e353935632d2e3338372e36372d2e35383520312e3433342d2e35373220322e3230387631372e343431632d2e3031332e3737352e31383520312e3533382e35373220322e32303861342e323520342e323520302030203020312e36323520312e3539356c31342e38363420382e363535632e3636382e33383720312e3432362e353920322e3139372e353973312e3532392d2e32303420322e3139372d2e35396c31302e3038312d352e39303120362e38352d342e3036352031302e3038312d352e393031632e3636382d2e33383720312e3432362d2e353920322e3139372d2e353973312e3532392e32303420322e3139372e35396c372e38383420342e353961342e353220342e353220302030203120312e35383920312e363136632e3338342e3636352e35393420312e3431382e36303820322e31383776392e333131632e3031332e3737352d2e31383520312e3533382d2e35373220322e32303861342e323520342e32352030203020312d312e36323520312e3539356c2d372e38383420342e373231632d2e3636382e3338372d312e3432362e35392d322e3139372e3539732d312e3532392d2e3230342d322e3139372d2e35396c2d372e3838342d342e353961342e353220342e35322030203020312d312e3538392d312e363136632d2e3338352d2e3636352d2e3539342d312e3431382d2e3630382d322e313837762d362e3033326c2d362e383520342e30363576362e303332632d2e3031332e3737352e31383520312e3533382e35373220322e32303861342e323520342e323520302030203020312e36323520312e3539356c31342e38363420382e363535632e3636382e33383720312e3432362e353920322e3139372e353973312e3532392d2e32303420322e3139372d2e35396c31342e3836342d382e363535632e3635372d2e33393420312e3230342d2e393520312e3538392d312e363136732e3539342d312e3431382e3630392d322e3138375635352e353338632e3031332d2e3737352d2e3138352d312e3533382d2e3537322d322e32303861342e323520342e32352030203020302d312e3632352d312e3539356c2d31342e3939332d382e3738367a222066696c6c3d2223666666222f3e3c646566733e3c6c696e6561724772616469656e742069643d2242222078313d2230222079313d2230222078323d22323730222079323d2232373022206772616469656e74556e6974733d227573657253706163654f6e557365223e3c73746f702073746f702d636f6c6f723d2223636235656565222f3e3c73746f70206f66667365743d2231222073746f702d636f6c6f723d2223306364376534222073746f702d6f7061636974793d222e3939222f3e3c2f6c696e6561724772616469656e743e3c2f646566733e3c7465787420783d2233322e352220793d223233312220666f6e742d73697a653d223237222066696c6c3d2223666666222066696c7465723d2275726c282341292220666f6e742d66616d696c793d22506c7573204a616b617274612053616e732c44656a6156752053616e732c4e6f746f20436f6c6f7220456d6f6a692c4170706c6520436f6c6f7220456d6f6a692c73616e732d73657269662220666f6e742d7765696768743d22626f6c64223e",
  "linkReferences": {},
  "deployedLinkReferences": {}
}